:100000000C944B520C946A520C946A520C946A529F
:100010000C946A520C946A520C946A520C946A5270
:100020000C946A520C946A520C946A520C946A5260
:100030000C946A520C946A520C946A520C946A5250
:100040000C946A520C946A520C946A520C946A5240
:100050000C946A520C946A520C946A520C946A5230
:100060000C946A520C946A520C946A520C946A5220
:100070000C946A520C946A520C946A520C946A5210
:100080000C946A520C946A520C946A52FFFFFFFF60
:10009000FFFFFFFFFFFFFFFFFFFFFFFFFFFFFFFF70
:1000A000FFFFFFFFFFFFFFFFFFFFFFFFFFFFFFFF60
:1000B000FFFFFFFFFFFFFFFFFFFFFFFFFFFFFFFF50
:1000C000FFFFFFFFFFFFFFFFFFFFFFFFFFFFFFFF40
:1000D000FFFFFFFFFFFFFFFFFFFFFFFFFFFFFFFF30
:1000E000FFFFFFFFFFE073CF0F01C07FFE039FE024
:1000F0003C1C0301F0F1CE07C1E07FFFFFFFFFFFD3
:10010000FFFFFFFFFFFFFFFFFFFFFFFFFFCF33CE2C
:10011000673CCF3FFE7F9FE7F9CF9F3CE671CF9FC3
:100120009CCF3FFFFFFFFFFFFFFFFFFFFFFFFFFF32
:10013000FFFFFFFFFFCFF3CCF33CCF3FFE7F9FE7F6
:10014000F3FF9F3CCF32CF9F3FCFFFFFFFFFFFFF6B
:10015000FFFFFFFFFFFFFFFFFFFFFFFFFFE1F00CCF
:10016000F339CF3FFE079FE073FF9F39CF324F9F98
:100170003FE1FFFFFFFFFFFFFFFFFFFFFFFFFFFF6D
:10018000FFFFFFFFFFF873CC0303C07FFE7F9FE7F5
:10019000F3FF9F03CF334F9F3FF87FFFFFFFFFFF2A
:1001A000FFFFFFFFFFFFFFFFFFFFFFFFFFFF33CC5E
:1001B000F339CFFFFE7F9FE7F3FF9F39CF338F9F48
:1001C0003FFF3FFFFFFFFFFFFFFFFFFFFFFFFFFFBF
:1001D000FFFFFFFFFFCF33CCF33CCFFFFE7F9FE756
:1001E000F9CF9F3CE673CF9F9CCF3FFFFFFFFFFF00
:1001F000FFFFFFFFFFFFFFFFFFFFFFFFFFE073CCED
:10020000F33CCFFFFE0380E03C1F9F3CF0F3CE07A2
:10021000C1E07FFFFFFFFFFFFFFFFFFFFFFFFFFFCB
:10022000FFFFFFFFFFFFFFFFFFFFFFFFFFFFFFFFDE
:10023000FFFFFFFFFFFFFFFFFFFFFFFFFFFFFFFFCE
:10024000FFFFFFFFFE0000000000000000000000B4
:10025000000000000000000000000000000000009E
:1002600000000000000000000000007FF800000017
:10027000000000000000000000000000000000007E
:10028000000000000000000000000000000000006E
:100290000000001FF000000000000000000000004F
:1002A000000000000000000000000000000000004E
:1002B00000000000000000000000000FE00000004F
:1002C000000000000000000000000000000000002E
:1002D000000000000000000000000000000000001E
:1002E00000000007E0000000000000000000000027
:1002F00000000000000000000000000000000000FE
:10030000000000000000000000000007C000000026
:1003100000000000000000000000000000000000DD
:1003200000000000000000000000000000000000CD
:1003300000000003C00000000000000000000000FA
:1003400000000000000000000000000000000000AD
:10035000000000000000000000000003C0000000DA
:10036000000000000000000000000000000000008D
:10037000000000000000000000000000000000007D
:1003800000000003C00000000000000000000000AA
:10039000000000000000000000000000000000005D
:1003A000000000000000000000000003C00000008A
:1003B000000000000000000000000000000000003D
:1003C000000000000000000000000000000000002D
:1003D00000000003C000000000000000000000005A
:1003E000000000000000000000000000000000000D
:1003F000000000000000000000000003E00000001A
:1004000000000000000000000000000000000000EC
:1004100000000000000000000000000000000000DC
:1004200000000007E00000000000000000000000E5
:1004300000000000000000000000000000000000BC
:10044000000000000000000000000007F0000000B5
:10045000000000000000000000000000000000009C
:10046000000000000000000000000000000000008C
:100470000000001FF8000000000000000000000065
:10048000000000000000000000000000000000006C
:1004900000000000000000000000003FFE0000001F
:1004A000000000000000000000000000000000004C
:1004B000000000000000000000000000000000003C
:1004C000000000FFFFFFFFFFFFFFFFFFFFFFFFFF39
:1004D000FFFFFFFFFFFFFFFFFFFFFFFFFFFFFFFF2C
:1004E000FFFFFFFFFFFFFFFFFFFFFFFFFFFFFFFF1C
:1004F000FFFFFFFFFFFFFFFFFFFFFFFFFFF0000019
:10050000001FFFFFFFFFFFFFFFFFFFFFFFFFFFFFDA
:10051000FFFFFFFFFFFFFFFFFFFFFFFFFFFFFFFFEB
:10052000FFFFFFFC000000000000007FFFFFFFFF57
:10053000FFFFFFFFFFFFFFFFFFFFFFFFFFFFFFFFCB
:10054000FFFFFFFFFFFFFFFFFFFFFC0000000000B9
:10055000000000007FFFFFFFFFFFFFFFFFFFFFFF27
:10056000FFFFFFFFFFFFFFFFFFFFFFFFFFFFFFFF9B
:10057000FFFF8000000000000000000003FFFFFFFD
:10058000FFFFFFFFFFFFFFFFFFFFFFFFFFFFFFFF7B
:10059000FFFFFFFFFFFFFFFFFFF8000001011F98B3
:1005A00033060000003FFFFFFFFFFFFFFFFFFFFFDD
:1005B000FFFFFFFFFFFFFFFFFFFFFFFFFFFFFFFF4B
:1005C000FFC0000001C71F9C330600000007FFFFAB
:1005D000FFFFFFFFFFFFFFFFFFFFFFFFFFFFFFFF2B
:1005E000FFFFFFFFFFFFFFFFFF00000001EF181EEE
:1005F000330600000001FFFFFFFFFFFFFFFFFFFFCB
:10060000FFFFFFFFFFFFFFFFFFFFFFFFFFFFFFFFFA
:10061000FE00000001FF1F9F330600000000FFFFE7
:10062000FFFFFFFFFFFFFFFFFFFFFFFFFFFFFFFFDA
:10063000FFFFFFFFFFFFFFFFFE00000001BB1F9B4E
:10064000B30600000000FFFFFFFFFFFFFFFFFFFFFB
:10065000FFFFFFFFFFFFFFFFFFFFFFFFFFFFFFFFAA
:10066000FE00000001931819F30600000000FFFFD0
:10067000FFFFFFFFFFFFFFFFFFFFFFFFFFFFFFFF8A
:10068000FFFFFFFFFFFFFFFFFF00000001831818BF
:10069000F38E00000001FFFFFFFFFFFFFFFFFFFFE2
:1006A000FFFFFFFFFFFFFFFFFFFFFFFFFFFFFFFF5A
:1006B000FFC0000001831F9871FC00000007FFFFCE
:1006C000FFFFFFFFFFFFFFFFFFFFFFFFFFFFFFFF3A
:1006D000FFFFFFFFFFFFFFFFFFF8000001831F98F0
:1006E00071FC0000003FFFFFFFFFFFFFFFFFFFFF68
:1006F000FFFFFFFFFFFFFFFFFFFFFFFFFFFFFFFF0A
:10070000FFFF8000000000000000000003FFFFFF6B
:10071000FFFFFFFFFFFFFFFFFFFFFFFFFFFFFFFFE9
:10072000FFFFFFFFFFFFFFFFFFFFFC0000000000D7
:10073000000000007FFFFFFFFFFFFFFFFFFFFFFF45
:10074000FFFFFFFFFFFFFFFFFFFFFFFFFFFFFFFFB9
:10075000FFFFFFFC000000000000007FFFFFFFFF25
:10076000FFFFFFFFFFFFFFFFFFFFFFFFFFFFFFFF99
:10077000FFFFFFFFFFFFFFFFFFFFFFFFFFF0000096
:10078000001FFFFFFFFFFFFFFFFFFFFFFFFFFFFF58
:10079000FFFFFFFFFFFFFFFFFFFFFFFFFFFFFFFF69
:1007A000FFFFFFFFFFFFFFFFFFFFFFFFFFFFFFFF59
:1007B000FFFFFFFFFFFFFFFFFFFFFFFFC0C0C0C045
:1007C000C0C0C0C0C0C0C0C0C0C0C0C0C0C0C0C029
:1007D000C0C0C0C0C0C0C0C0C0C0C0C0C0C0C0C019
:1007E000C0C0C0C0C0C0C0C0C0C0C0C0C0C0C0C009
:1007F000C0C0C0C0C0C0C0C0C0C0C0C0C0C0C0C0F9
:10080000C0C0C0C0C0C0C0C0C0C0C0C0C0C0C0C0E8
:10081000C0C0C0C0C0C0C0C0C0C0C0C0C0C0C0C0D8
:10082000C0C0C0C0C0C0C0C0C0C0C0C0C0C0C0C0C8
:10083000C0C0C0C0C0C0C0C0C0C0C0C0C0C0C0C0B8
:10084000C0C0C0C0C0C0C0C0C0C0C0C0C0C0C0C0A8
:10085000C0C0C0C0C0C0C0C0C0C0C0C0C0C0C0C098
:10086000C0C0C0C0C0C0C0C0C0C0C0C0C0C0C0C088
:10087000C0C0C0C0C0C0C0C0C0C0C0C0C0C00003F5
:100880000003000300030003000300030003000350
:100890000003000300030003000300030003000340
:1008A0000003000300030003000300030003000330
:1008B0000003000300030003000300030003000320
:1008C0000003000300030003000300030003000310
:1008D0000003000300030003000300030003000300
:1008E00000030003000300030003000300030003F0
:1008F00000030003000300030003000300030003E0
:1009000000030003000300030003000300030003CF
:1009100000030003000300030003000300030003BF
:1009200000030003000300030003000300030003AF
:10093000000300030003000300030003000300039F
:10094000000300030003000300030003000300038F
:10095000000300030003000300030003000300037F
:10096000000300030003000300030003000300036F
:10097000000300030003000300030003000300035F
:10098000000300030003000300030003000300034F
:10099000000300030003000300030003000300033F
:1009A000000300030003000300030003000300032F
:1009B000000300030003000300030003000300031F
:1009C000000300030003000300030003000300030F
:1009D00000030003000300030003000300030003FF
:1009E00000030003000300030003000300030003EF
:1009F00000030003000300030003000300030003DF
:100A000000033FFFFFFFFFFFFFFFFFFFFFFFFFFFB1
:100A1000FFFFFFFFFFFFC07FFFFFFFFFFFFFFFFFA5
:100A2000FFFFFFFFFFFFFFFFFFFFFFC0FFFFFFFF15
:100A3000FFFFFFFFFFFFFFFFFFFFFFFFFFFFFFFFC6
:100A4000C080000000000000000000000000000066
:100A50000000000001C08000000000000000000055
:100A600000000000000000000001C0800000000045
:100A7000000000000000000000000000000001C0B5
:100A800080000000000000000000000000000000E6
:100A900000000001C08000000000001FE00081FF96
:100AA000E3FC00000000000001C080000000000026
:100AB0001FF801C1FFE3FC00000000000001C0803E
:100AC0000000000000181C01C00C03000000000022
:100AD000000001C0800000000000180E03600C033D
:100AE0000000000000000001C080000000000018AD
:100AF0000603600C030000000000000001C080003D
:100B000000000000180306300C0300000000000085
:100B10000001C0800000000000180306300C03FC38
:100B200000000000000001C0800000000000180369
:100B30000E380C03FC00000000000001C080000023
:100B400000000018030C180C030000000000000057
:100B500001C080000000000018031FFC0C0300000F
:100B6000000000000001C080000000000018061F07
:100B7000FC0C030000000000000001C08000000029
:100B80000000180E180C0C0300000000000000010B
:100B9000C0800000000000181C30060C030000009C
:100BA0000000000001C08000000000001FF83006B7
:100BB0000C03FC00000000000001C08000000000E9
:100BC000001FE060030C03FC00000000000001C0F7
:100BD0008000000000000000000000000000000095
:100BE00000000001C08000000000000000000000C4
:100BF000000000000000000001C0800000000000B4
:100C00000000000000000000000000000001C080A3
:100C100000000000000000000000000000000000D4
:100C2000000001C0FFFFFFFFFFFFFFFFFFFFFFFF0F
:100C3000FFFFFFFFFFFFFFFFC0800000000000007C
:100C400000000000000000000000000001C0800063
:100C50000000000000000000000000000000000094
:100C60000001C08000000000000000000000000043
:100C700000000000000001C0800000000000000033
:100C8000000000000000000000000001C080000023
:100C90000000000000000000000000000000000054
:100CA00001C0800000000000000000000000000003
:100CB000000000000001C0800000000000000000F3
:100CC0000000000000000000000001C080000000E3
:100CD0000000000000000000000000000000000113
:100CE000C0800000000000000000000000000000C4
:100CF0000000000001C080000000000000000000B3
:100D000000000000000000000001C08000000000A2
:100D1000000000000000000000000000000001C012
:100D20008000000000000000000000000000000043
:100D300000000001C0800000000000000000000072
:100D4000000000000000000001C080000000000062
:100D50000000000000000000000000000001C08052
:100D60000000000000000000000000000000000083
:100D7000000001C080000000000000000000000032
:100D80000000000000000001C08000000000000022
:100D900000000000000000000000000001C0800012
:100DA0000000000000000000000000000000000043
:100DB0000001C080000000000000000000000000F2
:100DC00000000000000001C08000000000000000E2
:100DD000000000000000000000000001C0800000D2
:100DE0000000000000000000000000000000000003
:100DF00001C08000000000000000000000000000B2
:100E000000000000000180FFFFFFFFFFFFFFFFFF6A
:100E1000FFFFFFFFFFFFFFFFFFFFFF0000000000DD
:100E200000000000000000000000000000000000C2
:100E300000000000000000000000000000000000B2
:100E400000000000000000000000000000000000A2
:100E50000000000000000000000000000000000092
:100E60000000000000000000000000000000000082
:100E70000000000000000000000000000000000072
:100E80000000000000000000000000000000000062
:100E90000000000000000000000000000000000052
:100EA0000000000000000000000000000000000042
:100EB0000000000000000000000000000000000032
:100EC0000000000000000000000000000000000022
:100ED0000000000000000000000000000000000012
:100EE0000000000000000000000000000000000002
:100EF00000000000000000000000000000000000F2
:100F000000000000000000000000000000000000E1
:100F100000000000000000000000000000000000D1
:100F200000000000000000000000000000000000C1
:100F300000000000000000000000000000000000B1
:100F400000000000000000000000000000000000A1
:100F50000000000000000000000000000000000091
:100F60000000000000000000000000000000000081
:100F70000000000000000000000000000000000071
:100F8000003FFFFFFFFFFFFFFFFFFFFFFFFFFFFF30
:100F9000FFFFFFFFFFC07FFFFFFFFFFFFFFFFFFF20
:100FA000FFFFFFFFFFFFFFFFFFFFC0FFFFFFFFFF90
:100FB000FFFFFFFFFFFFFFFFFFFFFFFFFFFFFFC080
:100FC00080000000000000000000000000000000A1
:100FD00000000001C08000000000000000000000D0
:100FE000000000000000000001C0800000000000C0
:100FF0000000000000000000000000000001C080B0
:1010000000000000000000000000000000000000E0
:10101000000001C080000000000003FFCC30063F4C
:10102000C000000000000001C080000000000003BC
:10103000FFCC380E3FC000000000000001C080005F
:101040000000000000180C3C1E30000000000000F2
:101050000001C080000000000000180C3C1E3000A1
:1010600000000000000001C0800000000000001827
:101070000C3636300000000000000001C080000087
:1010800000000000180C3366300000000000000073
:1010900001C080000000000000180C33E63FC000D3
:1010A000000000000001C080000000000000180CDB
:1010B00031C63FC000000000000001C080000000F9
:1010C000000000180C308630000000000000000115
:1010D000C080000000000000180C30063000000046
:1010E0000000000001C080000000000000180C306B
:1010F00006300000000000000001C0800000000079
:101100000000180C3006300000000000000001C094
:1011100080000000000000180C30063000000000C5
:1011200000000001C080000000000000180C300624
:101130003FC000000000000001C08000000000006F
:1011400000180C30063FC000000000000001C08005
:10115000000000000000000000000000000000008F
:10116000000001C08000000000000000000000003E
:101170000000000000000001C0800000000000002E
:1011800000000000000000000000000001C080001E
:10119000000000000000000000000000000000004F
:1011A0000001C0FFFFFFFFFFFFFFFFFFFFFFFFFF8B
:1011B000FFFFFFFFFFFFFFC08000000000000000F6
:1011C000000000000000000000000001C0800000DE
:1011D000000000000000000000000000000000000F
:1011E00001C08000000000000000000000000000BE
:1011F000000000000001C0800000000000000000AE
:101200000000000000000000000001C0800000009D
:1012100000000000000000000000000000000001CD
:10122000C08000000000000000000000000000007E
:101230000000000001C0800000000000000000006D
:1012400000000000000000000001C080000000005D
:10125000000000000000000000000000000001C0CD
:1012600080000000000000000000000000000000FE
:1012700000000001C080000000000000000000002D
:10128000000000000000000001C08000000000001D
:101290000000000000000000000000000001C0800D
:1012A000000000000000000000000000000000003E
:1012B000000001C0800000000000000000000000ED
:1012C0000000000000000001C080000000000000DD
:1012D00000000000000000000000000001C08000CD
:1012E00000000000000000000000000000000000FE
:1012F0000001C080000000000000000000000000AD
:1013000000000000000001C080000000000000009C
:10131000000000000000000000000001C08000008C
:1013200000000000000000000000000000000000BD
:1013300001C080000000000000000000000000006C
:10134000000000000001C08000000000000000005C
:101350000000000000000000000001C0800000004C
:10136000000000000000000000000000000000017C
:10137000C08000000000000000000000000000002D
:10138000000000000180FFFFFFFFFFFFFFFFFFFFE6
:10139000FFFFFFFFFFFFFFFFFFFF00000000000057
:1013A000000000000000000000000000000000003D
:1013B000000000000000000000000000000000002D
:1013C000000000000000000000000000000000001D
:1013D000000000000000000000000000000000000D
:1013E00000000000000000000000000000000000FD
:1013F00000000000000000000000000000000000ED
:1014000000000000000000000000000000000000DC
:1014100000000000000000000000000000000000CC
:1014200000000000000000000000000000000000BC
:1014300000000000000000000000000000000000AC
:10144000000000000000000000000000000000009C
:10145000000000000000000000000000000000008C
:10146000000000000000000000000000000000007C
:10147000000000000000000000000000000000006C
:10148000000000000000000000000000000000005C
:10149000000000000000000000000000000000004C
:1014A000000000000000000000000000000000003C
:1014B000000000000000000000000000000000002C
:1014C000000000000000000000000000000000001C
:1014D000000000000000000000000000000000000C
:1014E00000000000000000000000000000000000FC
:1014F00000000000000000000000000000000000EC
:101500003FFFFFFFFFFFFFFFFFFFFFFFFFFFFFFFAB
:10151000FFFFFFFFC07FFFFFFFFFFFFFFFFFFFFF9A
:10152000FFFFFFFFFFFFFFFFFFC0FFFFFFFFFFFF0A
:10153000FFFFFFFFFFFFFFFFFFFFFFFFFFFFC08079
:10154000000000000000000000000000000000009B
:10155000000001C08000000000000000000000004A
:101560000000000000000001C0800000000000003A
:1015700000000000000000000000000001C080002A
:101580000000000180C030060201806030FF0000D2
:101590000001C080000000000180C0180C0701801D
:1015A0006030FF00000001C080000000000180C02A
:1015B000180C0701806030C000000001C0800000EE
:1015C00000000180C01C1C0D81806030C000000044
:1015D00001C080000000000180C00C180D818060F7
:1015E00030C000000001C0800000001F8180C00CDE
:1015F0001818C1806030C000000001C080000000E9
:101600001FE1FFC0063018C1806030FF00000001FC
:10161000C0800000001861FFC0063038E1806030F3
:10162000FF00000001C080000000183180C007608A
:101630003061806030C000000001C08000000018F0
:101640003180C003607FF1806030C000000001C0C5
:1016500080000000183180C003607FF1806030C0DE
:1016600000000001C080000000183180C001C0608F
:1016700031807070C000000001C08000000018615F
:1016800080C001C0C0198038E0C000000001C080E7
:101690000000001FE180C00080C019FF1FC0FF00D4
:1016A000000001C0800000001F8180C00081800D0B
:1016B000FF0700FF00000001C080000000180000CC
:1016C00000000000000000000000000001C08000D9
:1016D00000001800000000000000000000000000F2
:1016E0000001C080000000180000000000000000A1
:1016F00000000000000001C0800000001800000091
:10170000000000000000000000000001C080000098
:1017100000180000000000000000000000000000B1
:1017200001C0FFFFFFFFFFFFFFFFFFFFFFFFFFFF06
:10173000FFFFFFFFFFFFC08000000000000000006F
:101740000000000000000000000001C08000000058
:101750000000000000000000000000000000000188
:10176000C080000000000000000000000000000039
:101770000000000001C08000000000000000000028
:1017800000000000000000000001C0800000000018
:10179000000000000000000000000000000001C088
:1017A00080000000000000000000000000000000B9
:1017B00000000001C08000000000000000000000E8
:1017C000000000000000000001C0800000000000D8
:1017D0000000000000000000000000000001C080C8
:1017E00000000000000000000000000000000000F9
:1017F000000001C0800000000000000000000000A8
:101800000000000000000001C08000000000000097
:1018100000000000000000000000000001C0800087
:1018200000000000000000000000000000000000B8
:101830000001C08000000000000000000000000067
:1018400000000000000001C0800000000000000057
:10185000000000000000000000000001C080000047
:101860000000000000000000000000000000000078
:1018700001C0800000000000000000000000000027
:10188000000000000001C080000000000000000017
:101890000000000000000000000001C08000000007
:1018A0000000000000000000000000000000000137
:1018B000C0800000000000000000000000000000E8
:1018C0000000000001C080000000000000000000D7
:1018D00000000000000000000001C08000000000C7
:1018E000000000000000000000000000000001C037
:1018F0008000000000000000000000000000000068
:101900000000000180FFFFFFFFFFFFFFFFFFFFFF61
:10191000FFFFFFFFFFFFFFFFFF00000000000000D0
:10192000000000000000000000000000000000C0F7
:1019300000000000000000000000000000000000A7
:101940000000000000000000000000000000000097
:1019500000000000000003C00000000000000000C4
:101960000000000000000000000000000000000077
:10197000000000000000000000000000000003C0A4
:101980000000000000000000000000000000000057
:101990000000000000000000000000000000000047
:1019A00000000000000003E0000000000000000054
:1019B0000000000000000000000000000000000027
:1019C000000000000000000000000000000003E034
:1019D0000000000000000000000000000000000007
:1019E00000000000000000000000000000000000F7
:1019F00000000000000007E0000000000000000000
:101A000000000000000000000000000000000000D6
:101A1000000000000000000000000000000007F0CF
:101A200000000000000000000000000000000000B6
:101A300000000000000000000000000000000000A6
:101A40000000000000000FF800000000000000008F
:101A50000000000000000000000000000000000086
:101A600000000000000000000000000000001FFE59
:101A70000000000000000000000000000000000066
:101A80000000000000000000000000000000000056
:101A90000000000000007FFFFFFFFFFFFFFFFFFFD0
:101AA000FFFFFFFFFFFFFFFFFFFFFFFFFFFFFFFF46
:101AB000FFFFFFFFFFFFFFFFFFFFFFFFFFFFFFFF36
:101AC000FFFFFFFFFFFFFFFFFFFFFFFFFFFFFFFF26
:101AD000F00000001FFFFFFFFFFFFFFFFFFFFFFF02
:101AE000FFFFFFFFFFFFFFFFFFFFFFFFFFFFFFFF06
:101AF000FFFFFFFFFFFFFC000000000000007FFF72
:101B0000FFFFFFFFFFFFFFFFFFFFFFFFFFFFFFFFE5
:101B1000FFFFFFFFFFFFFFFFFFFFFFFFFFFC0000D6
:101B2000000000000000007FFFFFFFFFFFFFFFFF3E
:101B3000FFFFFFFFFFFFFFFFFFFFFFFFFFFFFFFFB5
:101B4000FFFFFFFFFF800000000000000000000317
:101B5000FFFFFFFFFFFFFFFFFFFFFFFFFFFFFFFF95
:101B6000FFFFFFFFFFFFFFFFFFFFFFFFF800000089
:101B700000000000000000003FFFFFFFFFFFFFFF2D
:101B8000FFFFFFFFFFFFFFFFFFFFFFFFFFFFFFFF65
:101B9000FFFFFFFFC00000007E0781F1860000000C
:101BA00007FFFFFFFFFFFFFFFFFFFFFFFFFFFFFF3D
:101BB000FFFFFFFFFFFFFFFFFFFFFFFF0000000031
:101BC000630CC3198C00000001FFFFFFFFFFFFFF44
:101BD000FFFFFFFFFFFFFFFFFFFFFFFFFFFFFFFF15
:101BE000FFFFFFFE00000000631866019800000080
:101BF00000FFFFFFFFFFFFFFFFFFFFFFFFFFFFFFF4
:101C0000FFFFFFFFFFFFFFFFFFFFFFFE00000000E1
:101C10007E186601B000000000FFFFFFFFFFFFFF1E
:101C2000FFFFFFFFFFFFFFFFFFFFFFFFFFFFFFFFC4
:101C3000FFFFFFFE00000000631FE601F000000050
:101C400000FFFFFFFFFFFFFFFFFFFFFFFFFFFFFFA3
:101C5000FFFFFFFFFFFFFFFFFFFFFFFF0000000090
:101C6000619866019800000001FFFFFFFFFFFFFF82
:101C7000FFFFFFFFFFFFFFFFFFFFFFFFFFFFFFFF74
:101C8000FFFFFFFFC0000000619863198C00000097
:101C900007FFFFFFFFFFFFFFFFFFFFFFFFFFFFFF4C
:101CA000FFFFFFFFFFFFFFFFFFFFFFFFF800000048
:101CB0007F1861F1860000003FFFFFFFFFFFFFFF7D
:101CC000FFFFFFFFFFFFFFFFFFFFFFFFFFFFFFFF24
:101CD000FFFFFFFFFF800000000000000000000386
:101CE000FFFFFFFFFFFFFFFFFFFFFFFFFFFFFFFF04
:101CF000FFFFFFFFFFFFFFFFFFFFFFFFFFFC0000F5
:101D0000000000000000007FFFFFFFFFFFFFFFFF5C
:101D1000FFFFFFFFFFFFFFFFFFFFFFFFFFFFFFFFD3
:101D2000FFFFFFFFFFFFFC000000000000007FFF3F
:101D3000FFFFFFFFFFFFFFFFFFFFFFFFFFFFFFFFB3
:101D4000FFFFFFFFFFFFFFFFFFFFFFFFFFFFFFFFA3
:101D5000F00000001FFFFFFFFFFFFFFFFFFFFFFF7F
:101D6000FFFFFFFFFFFFFFFFFFFFFFFFFFFFFFFF83
:101D7000FFFFFFFFFFFFFFFFFFFFFFFFFFFFFFFF73
:101D8000FFFFFFFFFFFFFFFFFFFFFFFFFFFFFF035F
:101D9000FFFFFFFFFFFFFFFFFFFFFF800C000000C2
:101DA00000000000000000006010000000000000C3
:101DB00000000000001020000000000000000000F3
:101DC00000000840000000000000000000000004C7
:101DD000400000000000000000000000048000003F
:101DE0000000000000000000000280000000000071
:101DF0000000000000000280000020081E0FC1FE4D
:101E00000000000280000020083F0FE1FE000000FB
:101E1000028000003018618831000000000280005C
:101E2000003838408819000000000280000028684F
:101E3000804809000000000280000024C880480992
:101E4000FE000000028000002388804809FE000098
:101E50000002800000210880480900000000028084
:101E600000002008804809000000000280000020D7
:101E700008408811000000000280000020086188EE
:101E800031000000000280000020083F0FE1FE004A
:101E900000000280000020081E0FC1FE00000002AA
:101EA0008000000000000000000000000280000030
:101EB00000000000000000000002400000000000E0
:101EC00000000000000004400000000000000000CE
:101ED00000000004200000000000000000000000DE
:101EE00008100000000000000000000000100C00BE
:101EF000000000000000000000006003FFFFFFFF83
:101F0000FFFFFFFFFFFFFF8003FFFFFFFFFFFFFF5C
:101F1000FFFFFFFF800C0000000000000000000039
:101F20000060100000000000000000000000102011
:101F30000000000000000000000000084000000059
:101F4000000000000000000004400000000000004D
:101F500000000000000480000000000000000000FD
:101F6000000002807C0782023FC7E0809003FC02F1
:101F700081FE1FC2023FC7F0809003FC02818618D9
:101F800062022004188090020002810230020220C6
:101F9000040C8090020002810020020220040480D0
:101FA0009002000280C02003FE3FC404809003FC26
:101FB0000280382003FE3FC404809003FC028006A8
:101FC000200202200404809002000280012002020C
:101FD0002004048090020002818130020220040863
:101FE000809002000281C3186202200418C190028E
:101FF000000280FE0FE2023FC7F07F1FE3FC028079
:102000007C0782023FC7E03E1FE3FC028000000025
:10201000000000000000000002800000000000003E
:10202000000000000002800000000000000000002E
:10203000000002400000000000000000000000045A
:10204000400000000000000000000000042000002C
:102050000000000000000000000810000000000068
:10206000000000000000100C000000000000000054
:102070000000006003FFFFFFFFFFFFFFFFFFFFFF08
:102080008003FFFFFFFFFFFFFFFFFFFFFF800C004C
:1020900000000000000000000000601000000000D0
:1020A0000000000000000010200000000000000000
:1020B00000000000084000000000000000000000D8
:1020C0000004400000000000000000000000048048
:1020D0000000000000000000000000028007C3FDB7
:1020E000FFEFFF30C0300FC002800FE3FDFFEFFFB6
:1020F00030E0303FF002801C23000C006030F030F4
:10210000703002801803000C006030F030E00002F4
:10211000801803000C006030D830C00002801C031F
:10212000000C006030DC31800002800F03FC0C00EA
:102130006030CC31800002800783FC0C006030C628
:10214000318000028001C3000C006030C33181F097
:10215000028000E3000C006030C3B181F002800017
:1021600063000C006030C1B0C03002801063000C0E
:10217000006030C0F0E030028018E3000C006030F6
:10218000C0F0703002801FC3FC0C006030C0703F94
:10219000F002800F83FC0C006030C0300FC0028062
:1021A00000000000000000000000000240000000ED
:1021B00000000000000000000440000000000000DB
:1021C00000000000000420000000000000000000EB
:1021D00000000810000000000000000000000010D7
:1021E0000C00000000000000000000006003FFFF82
:1021F000FFFFFFFFFFFFFFFFFF8007FFFFFFFFFF66
:10220000FFFFFFFFE00800000000000000000010DA
:10221000300000000000000000000C4007E020FE3D
:10222000FC75DCE7E0024002105092442489122041
:10223000028002085010482A890240018002088862
:1022400010782A88C3C0018002088810482A887242
:102250004001800208F810403308120001400211CA
:1022600004104411091220024007E38E38FC111CAF
:10227000E7E002300000000000000000000C080051
:1022800000000000000000001007FFFFFFFFFFFF3D
:10229000FFFFFFE007FFFFFFFFFFFFFFFFFFE0087B
:1022A00000000000000000000010300000000000EE
:1022B000000000000C40E38E31DFDCE3AEE73F02BC
:1022C000406311189248412448910280552094821D
:1022D00008415448120180552094820FC154461E73
:1022E00001805520928208415443920180492091F7
:1022F0008208419840900140491111820840884865
:10230000910240E38E38871CE088E73F02300000EE
:10231000000000000000000C0800000000000000A9
:1023200000001007FFFFFFFFFFFFFFFFFFE00000BF
:1023300000000000000000000007FFFFFFFFFFFF9C
:10234000FFFFFFE00FFFFFFFFFFFFFFFFFFFF03F7B
:10235000F81FDF01038A23181FFC3FFDEFAF6DBBA1
:10236000DB76EDDFFC7FFDF7AFEFB7D576FDBFFE87
:102370007FFDF777EF87D5773C3FFE7FFDF777EF5F
:10238000B7D5778DBFFE7FFDF707EFBFCCF7EDFF29
:10239000FE3FFDEEFBEFBBEEF6EDDFFC3FF81C7100
:1023A000C703EEE3181FFC0FFFFFFFFFFFFFFFFF58
:1023B000FFF007FFFFFFFFFFFFFFFFFFE000000050
:1023C000000000000000000000000000000000000D
:1023D00000000000000000000000000000000000FD
:1023E00000000000000000000000000000000000ED
:1023F000000000000000000000000000000000F8E5
:102400000000000000000000000084020000000046
:10241000100000000082E7980000000000000000AB
:10242000821224000000000000000082323C000004
:1024300000000000000082D2200000000000000028
:10244000008492200000001000000000F8799C0039
:10245000000000000000000000000000000000007C
:10246000000000000000000000000000000000006C
:1024700000000003FFFFC00000000000000000009B
:10248000000000000000000000000000000000004C
:10249000000000000000000000000000000000003C
:1024A000000000000000000000000000000000002C
:1024B000000000000000000000000000000000001C
:1024C000000000000000000000000000000000000C
:1024D00000000000000000000000000000000000FC
:1024E00000000000000000000000000000000000EC
:1024F000000000000000000000000000800000005C
:102500000000000000000080000002000000000049
:102510000000802000004000000000000096799636
:102520003AF440100000001A9922594242800000FB
:1025300000001C9123D1624280000000000491221F
:10254000111A410000000000089122110A41000008
:102550000000000B9119D17231001000000013002F
:102560000000000200000000000000000000020067
:102570000000000000000000000400000000000057
:1025800000000000000003FFFFFFFF01FFFFFFFF4F
:10259000FFFFFC001E00000000000003C020000040
:1025A000000000000020411C706712771247108263
:1025B00092488C9244924408829248481244924431
:1025C00008839248281E749247088452482C9244EB
:1025D000924408445C70C712770C7710200000000A
:1025E00000000000201E00000000000003C001FFEA
:1025F000FFFFFFFFFFFC00000000000000000000E4
:10260000000007FFFFFFFFFFFFFFFFFFE00FFFFFDF
:10261000FFFFFFFFFFFFFFF03F1C71CE20231C5187
:1026200018C0FC3F9CEEE76DB7BEDBB76EFC7FAA1F
:10263000DF6B7DF7BEABB7EDFE7FAADF6B7DF03EB3
:10264000ABB9E1FE7FAADF6D7DF7BEABBC6DFE7F4F
:10265000B6DF6E7DF7BE67BF6FFE3FB6EEEE7DF76D
:10266000BF77B76EFC3F1C71C778E31F7718C0FCBB
:102670000FFFFFFFFFFFFFFFFFFFF007FFFFFFFF61
:10268000FFFFFFFFFFE0000000000000000000006F
:1026900000FFFFFFFFFFFFFFFFFE7FFF8000000046
:1026A00000000000024001800001C20C7000000226
:1026B00040018000008506200000024001800000EB
:1026C0008505200000024001800000888520000070
:1026D0000240018000008884A00000024081800048
:1026E000008F846000000241C180000090446000BF
:1026F000000241C1800000B8EE2000000243E180EA
:10270000000280000000000247F18000030000008A
:1027100000000247F1FFFFFFFFFFFFFFFFFE4FF941
:102720000000000000000000005FFD00000000004D
:102730000000000040010000000000000000004018
:1027400001FFFFFFFFFFFFFFFFFE400180000000D1
:1027500000000000024001800000000000000002B4
:102760004001800001FBF7C0000002400180000032
:102770008912200000027FFF8000009122200000CB
:10278000020000800000F1E3C000000200008000B1
:102790000091222000000200008000008102200041
:1027A0000002000080000081122000000200008072
:1027B0000000E1F7E00000020000800000000000DF
:1027C0000000020000FFFFFFFFFFFFFFFFFE000011
:1027D00000000000000000000000000000000000F9
:1027E00000000000000000000000000000000000E9
:1027F00000FFFFFFFFFFFFFFFFFE00008000000063
:102800000000000002000080000000000000000244
:1028100000008000038E083E0000020000800001DE
:102820008C141100000200008000015414110000FB
:10283000020000800001542211000002000080000C
:102840000154221E0000020000800001243E1400FA
:1028500000020000800001244112000002000080FC
:1028600000038EE3B9800002000080000000000039
:102870000000020000FFFFFFFFFFFFFFFFFE000060
:102880000000000000000000000000000000000048
:102890000000000000000000000000000000000038
:1028A00000FFFFFFFFFFFFFFFFFE000080000000B2
:1028B0000000000002000080000000000000000294
:1028C0000000800000107CF8000002000080000082
:1028D000282244000002000080000028224400005A
:1028E000020000800000442244000002000080003A
:1028F00000443C7800000200008000007C20500072
:1029000000020000800000822048000002000080D9
:102910000001C770E6000002000080000000000017
:102920000000020000FFFFFFFFFFFFFFFFFE0000AF
:102930000000000000000000000000000000000097
:102940000000000000000000000000000000000087
:1029500000FFFFFFFFFFFFFFFFFE00008000000001
:10296000000000000200008000038E0877000002D3
:1029700000008000018C1422000002000080000191
:1029800054141400000200008000015422140000BE
:1029900002000080000154220800000200008000B4
:1029A00001243E08000002000080000124410800CC
:1029B00000027FFF8000038EE39C00000240018044
:1029C0000000000000000002400180000000000044
:1029D0000000024001FFFFFFFFFFFFFFFFFE40017D
:1029E00000000000000000000040010000000000A6
:1029F0000000000040010000000000000000005F37
:102A0000FDFFFFFFFFFFFFFFFFFE5FFD80000000F7
:102A100000000000024FF9800000EE76380000024E
:102A200047F180000044231000000247F1800000BD
:102A300044229000000243E1800000442290000004
:102A40000241C180000044225000000241C18000C8
:102A50000044223000000240818000004422300007
:102A60000002400180000043C710000002400180C6
:102A700000014000000000024001800001800000D1
:102A80000000024001FFFFFFFFFFFFFFFFFE7FFF8F
:102A900082000110000000000000C60001100000CC
:102AA00000000000C638B390100000000000AA44E7
:102AB000C916000000000000AA44891900000000A7
:102AC0000000AA448911000000000000924489110E
:102AD0000000000000008238899110000000000012
:102AE00000000000000000000000000000000000E6
:102AF00000000000000000000000000000000000D6
:102B000000000000000000000000000000000000C5
:102B100000000000000000000000000000000000B5
:102B200000000000000000000000000000000000A5
:102B30000000000000000000000000000000000095
:102B40000000000000000000000000000000000085
:102B50000000000000000000000000000000000075
:102B60000000000000000000000000000000000065
:102B70000000000000000000000000000000000055
:102B8000F8000000000000000000800000000000CD
:102B900000000000829CBC00100000080000F3222E
:102BA000D20000000000000082229200000000001D
:102BB00000008222920000000000000082229200A9
:102BC000000000000000821C9200100000080000BD
:102BD00000000000000000000000000000000000F5
:102BE00000000000000000000000000000000000E5
:102BF000000001FFFFFFFFFF0000000000000000D9
:102C000000000000000000000000000000000000C4
:102C100000000000000000000000000000000000B4
:102C200000000000000000000000000000000000A4
:102C30000000000000000000000000000000000094
:102C40000000000000000000000000000000000084
:102C50000000000000000000000000000000000074
:102C60000000000000000000000000000000000064
:102C7000F80000000000000000002000000000003C
:102C80000000000021C00000100000080000222009
:102C900000000000000000002220000000000000F2
:102CA00000002220000000000000000022200000A0
:102CB00000000000000021C000001000000800001B
:102CC0000000000000000000000000000000000004
:102CD00000000000000000000000000000000000F4
:102CE000000001FFFFFFFFFF0603033FF83E000067
:102CF00060070380C06063030301800E03033FF895
:102D00007F000060070381C06063030701800F0339
:102D1000030300E38000E0078781E070630307811D
:102D2000800F03030300C18000C007CF81E07863F8
:102D3000030781801B0303030180C000C006CD830D
:102D4000607863030D8180198303030180C001C093
:102D5000067983306C63030CC180398303030180DF
:102D6000C00180067987306C63031CC18030C303C7
:102D7000030180C0018006318618666303186180F4
:102D800030C303030180C003000601861867630394
:102D90001861807FC303030180C0030006018FF820
:102DA0006363033FE1807FE3030300C18003000608
:102DB000018FFC61E3033FF1806063870300E380E0
:102DC000060006018C0C61E387303180C071FE0380
:102DD000007F0006000601980E60E1FE6039FFC02A
:102DE000307C03003E0006000601980660607C60AF
:102DF00019FF8218184200000000C6242462100047
:102E00000000AA42427200000000BA424252000092
:102E100000009242424A000000008242424E0000FE
:102E2000000082242446100000008218184200008E
:102E3000000000000000000000000000000003FF90
:102E4000FFC00000000000000004000004000000BB
:102E5000000000000000000400000400000000006A
:102E6000000000000008000008000000F023FBC084
:102E70000000000800000800000088204200100048
:102E8000000800000800000084504200000000100C
:102E9000000010000000845043C00000001000003B
:102EA00010000000848842000000001000001000A4
:102EB000000084F842000000001000001000000034
:102EC0008888420010000020000020000000F1046B
:102ED00043C00000002000002000000000000000AF
:102EE00000000000000000000000000000000000E2
:102EF00000000000000000000000000003FFFFFFD2
:102F0000FFFFFFFFFFF000000000000000000000D6
:102F100000000000000000000000000000000000B1
:102F200000000000000000000000000000000000A1
:102F30000000000000000000000000000000000091
:102F40000000000000000000000000000000000081
:102F50000000000000000000000000000000000071
:102F60000000000000000000000000000000000061
:102F70000000000000000000000000000000000051
:102F80000000000000000000000000000000000041
:102F90000000000000000000000000000000000031
:102FA0000000000000000000000000000000000021
:102FB000000000000000000000000000FD209E0056
:102FC000000000000000000000002131900010000F
:102FD0000010000000000000212A90000000000006
:102FE000000000000000212A9E00000000000000F8
:102FF00000000000212490000000000000000000FC
:1030000000002120900000000000000000000000EF
:10301000212090001000001000000000000021207E
:103020009E00000000000000000000000000000002
:103030000000000000000000000000000000000090
:1030400000000000000000000000000003FFFFFF80
:10305000FFFFC000000000000000000000000000B2
:10306000000003FFFF0001FFFF8000FFFFC00C0016
:1030700000C00600006003000030100600200807B2
:10308000E0100401F808200600101007E00808010D
:10309000F804401E0008200C300410030C02401EEF
:1030A0000008200C300410030C02800600044000CD
:1030B000300220000C018006000440003002200095
:1030C0000C01800600044000E00220007801800628
:1030D00000044000E0022000780180060004400166
:1030E000800220000C0180060004400180022000C4
:1030F0000C01800600044007000220000C0180063D
:1031000000044007000220000C0180060004400C6F
:10311000000220030C0140060008200C00041003EC
:103120000C02403FC008200FF0041001F802203FBD
:10313000C010100FF0080801F8041000002008006B
:103140000010040000080C0000C00600006003002E
:10315000003003FFFF0001FFFF8000FFFFC0000001
:10316000000000000000000000000000000000005F
:10317000000000000000000000000000000000004F
:10318000000000000000000000000000000000003F
:10319000000000000000000000000000000000002F
:1031A00000000000000003FFFF0001FFFF8000FFA0
:1031B000FFC00C0000C006000060030000301007D4
:1031C0000020080FF0100400F00820070010100F76
:1031D000F0080800F004400F0008200C0004100163
:1031E0008002400F0008200C000410018002801BA8
:1031F0000004400C000220030001801B0004400C6E
:1032000000022003000180330004400FE002200789
:10321000F00180330004400FE0022007F0018063DA
:1032200000044000300220061801806300044000C2
:10323000300220061801807FC004400030022006C2
:103240001801807FC004400030022006180180036E
:103250000004400C30022006180140030008200C36
:10326000300410061802400300082007E004100391
:10327000F002200300101007E0080803F00410001B
:10328000002008000010040000080C0000C0060028
:1032900000600300003003FFFF0001FFFF8000FF1C
:1032A000FFC000000000000000000000000000005F
:1032B000000000000000000000000000000000000E
:1032C00000000000000000000000000000000000FE
:1032D00000000000000000000000000000000000EE
:1032E0000000000000000000000003FFFF0001FFDD
:1032F000FF8000FFFFC00C0000C00600006003005C
:103300000030103FC0200807E0100403F008203F01
:10331000C0101007E0080803F0044000C008200CAB
:103320003004100618024000C008200C30041006BB
:1033300018028000C004400C3002200618018000F2
:10334000C004400C300220061801800180044007B0
:10335000E00220061801800180044007E0022006F8
:10336000180180030004400C30022003F8018003A0
:103370000004400C30022003F80180060004400CD9
:1033800030022000300180060004400C3002200092
:103390003001800C0004400C300220006001400C21
:1033A0000008200C300410006002400C00082007C8
:1033B000E0041003C002200C00101007E00808030E
:1033C000C0041000002008000010040000080C00D9
:1033D00000C0060000600300003003FFFF0001FF93
:1033E000FF8000FFFFC000000000000000000000A0
:1033F00000000000000000000000000000000000CD
:1034000000000000000000000000000000000000BC
:1034100000000000000000000000000000000000AC
:10342000000000000000000000000000000003FF9A
:10343000FF0001FFFF8000FFFFC00C0000C006007E
:10344000006003000030100000200807E0100406B0
:103450000C08200000101007E00808060C044000CB
:103460000008200C30041003180240000008200C53
:103470003004100318028000C004400C70022001C8
:10348000B0018000C004400C70022001B00181F83E
:10349000C304400CB0022000E001830CC604400CC1
:1034A000B0022000E001830CCC04400D300220006B
:1034B000E001830CFC04400D30022000E001830C8D
:1034C000C704400E30022001B00181F8C304400E51
:1034D00030022001B00180000004400C30022003C3
:1034E000180140000008200C3004100318024000AE
:1034F00000082007E00410060C022000001010074E
:10350000E00808060C041000002008000010040069
:1035100000080C0000C0060000600300003003FF3C
:10352000FF0001FFFF8000FFFFC00000000000005F
:10353000000000000000FFFFFFFFFFFFFFFFFE7F16
:10354000FF8000000000000000024001800000EE4B
:1035500077000000024001800000442200000002C9
:103560004001800000442200000002400180000071
:1035700044220000000240018000004422000000BC
:1035800002408180000044220000000241C180000E
:103590000044222000000241C180000043C7E00037
:1035A000000243E180000140000000000247F1807A
:1035B000000180000000000247F1FFFFFFFFFFFF56
:1035C000FFFFFE4FF90000000000000000005FFD5B
:1035D00000000000000000000040010000000000AA
:1035E000000000004001FFFFFFFFFFFFFFFFFE4064
:1035F0000180000000000000000240018000000087
:1036000000000000024001800000439C70000002A6
:103610004001800000A108880000027FFF800000B8
:10362000A109000000020000800001110900000053
:10363000020000800001110900000002000080006B
:1036400001F1091C00000200008000020908880046
:10365000000200008000071CF078000002000080DB
:1036600000000000000000020000FFFFFFFFFFFF5E
:10367000FFFFFE000000000000000000000000004E
:10368000000000000000000000000000000000003A
:10369000000000000000FFFFFFFFFFFFFFFFFE0034
:1036A0000080000000000000000200008000000018
:1036B0000000000002000080000073F7C00000025C
:1036C000000080000089122000000200008000003D
:1036D000812220000002000080000061E220000042
:1036E0000200008000003923C000000200008000BA
:1036F00000090200000002000080000089120000A2
:103700000002000080000073F7000000020000804B
:1037100000000000000000020000FFFFFFFFFFFFAD
:10372000FFFFFE000000000000000000000000009D
:103730000000000000000000000000000000000089
:10374000000000000000FFFFFFFFFFFFFFFFFE0083
:103750000080000000000000000200008000000067
:1037600000000000020000800001C0E7F00000023D
:10377000000080000221149000000200008000047C
:10378000121080000002000080000412008000007F
:10379000020000800004120080000002000080008F
:1037A000041200800000020000800002211080004E
:1037B00000020000800001C0E1C0000002000080A3
:1037C00000000000000000020000FFFFFFFFFFFFFD
:1037D000FFFFFE00000000000000000000000000ED
:1037E00000000000000000000000000000000000D9
:1037F000000000000000FFFFFFFFFFFFFFFFFE00D3
:1038000000800000000000000002000080000000B6
:103810000000000002000080000638E38C00000277
:103820000000800003111108000002000080000267
:1038300092088800000200008000029208900000B8
:103840000200008000025208900000020000800088
:10385000023208500000027FFF8000023110600039
:103860000002400180000710E020000002400180BB
:1038700000000000000000024001FFFFFFFFFFFF0B
:10388000FFFFFE40010000000000000000004001BA
:1038900000000000000000000040010000000000E7
:1038A000000000005FFDFFFFFFFFFFFFFFFFFE5F67
:1038B000FD8000000000000000024FF980000000C1
:1038C000000000000247F1800007E3F1C0000002A1
:1038D00047F180000211122000000243E180000243
:1038E00009242000000241C180000209E400000018
:1038F0000241C180000209240000000240818000D2
:1039000002090400000002400180000211122000A0
:1039100000024001800007E3F1C000000240018086
:1039200000000000000000024001FFFFFFFFFFFF5A
:10393000FFFFFE7FFF00000000000000000000000D
:10394000000000000FFFE00000000000000000FF8A
:10395000FFFF0000000000000007FFFFFFE0000085
:10396000000000003FFFFFFFD80000000000007FC4
:10397000FFFFFFFE000000000001FFFFFFFFFF80D0
:103980000000000007FFFFFFFFFFE0000000000F46
:10399000FFFFFFFFFFF8000000001FFFFFFFFFFF1A
:1039A000FC000000007FFFFFFFFFFFFE00000000A3
:1039B000FFFFFFFFFFFFFF00000001FFFFFFFFFF12
:1039C000FFFFC0000003FFFFFFFFFFFFFFE000005D
:1039D00007FFFFFFFFFFFFFFF000000FFFFFFFFFEC
:1039E000FFFFFFF800000FFFFFFFFFFFFFFFF800E2
:1039F000001FFFFFFFFFFFFFFFFC00003FFFFFFF77
:103A0000FFFFFFFFFE00007FFFFFFFFFFFFFFFFF45
:103A10000000FFFFFFFFFFFFFFFFFF8000FFFFFF32
:103A2000FFFFFFFFFFFF8001FFFFFFFFFFFFFFFF23
:103A3000FFC001FFFFFFFFFFFFFFFFFFC003FFFF0E
:103A4000FFFFFFFFFFFFFFE003FFFFFFFFFFFFFFA1
:103A5000FFFFE007FFFFFFFFFFFFFFFFFFF007FF94
:103A6000FFFFFFFFFFFFFFFFF00FFFFFFFFFFFFF65
:103A7000FFFFFFF80FFFFFFFFFFFFFFFFFFFF81F34
:103A8000FFFFFFFFFFFFFFFFFFFC1FFFFFFFFFFF29
:103A9000FFFFFFFFFC1FFFFFFFFFFFFFFFFFFFFC1C
:103AA0003FFFFFFFFFFFFFFFFFFFFE3FFFFFFFFFA7
:103AB000FFFFFFFFFFFE3FFFFFFFFFFFFFFFFFFFD7
:103AC000FE3FFFFFFFFFFFFFFFFFFFFE3FFFFFFF88
:103AD000FFFFFFFFFFFFFE7FFFFFFFFFFFFFFFFF77
:103AE000FFFF7FFFFFFFFFFFFFFFFFFFFF7FFFFFE6
:103AF000FFFFFFFFFFFFFFFF7FFFFFFFFFFFFFFF56
:103B0000FFFFFF7FFFFFFFFFFFFFFFFFFFFF7FFFC5
:103B1000FFFFFFFFFFFFFFFFFF7FFFFFFFFFFFFF35
:103B2000FFFFFFFF7FFFFFFFFFFFFFFFFFFFFF7FA5
:103B3000FFFFFFFFFFFFFFFFFFFF7FFFFFFFFFFF15
:103B4000FFFFFFFFFF7FFFFFFFFFFFFFFFFFFFFF05
:103B50007FFFFFFFFFFFFFFFFFFFFF7FFFFFFFFF75
:103B6000FFFFFFFFFFFF3FFFFFFFFFFFFFFFFFFF25
:103B7000FE3FFFFFFFFFFFFFFFFFFFFE3FFFFFFFD7
:103B8000FFFFFFFFFFFFFE3FFFFFFFFFFFFFFFFF06
:103B9000FFFE3FFFFFFFFFFFFFFFFFFFFE1FFFFFD7
:103BA000FFFFFFFFFFFFFFFC1FFFFFFFFFFFFFFF08
:103BB000FFFFFC1FFFFFFFFFFFFFFFFFFFFC0FFFEB
:103BC000FFFFFFFFFFFFFFFFF80FFFFFFFFFFFFFFC
:103BD000FFFFFFF807FFFFFFFFFFFFFFFFFFF007FB
:103BE000FFFFFFFFFFFFFFFFFFF003FFFFFFFFFFF0
:103BF000FFFFFFFFE003FFFFFFFFFFFFFFFFFFE00F
:103C000001FFFFFFFFFFFFFFFFFFC001FFFFFFFFFF
:103C1000FFFFFFFFFFC000FFFFFFFFFFFFFFFFFFF2
:103C20008000FFFFFFFFFFFFFFFFFF80007FFFFF20
:103C3000FFFFFFFFFFFF00003FFFFFFFFFFFFFFF52
:103C4000FE00001FFFFFFFFFFFFFFFFC00000FFF54
:103C5000FFFFFFFFFFFFF800000FFFFFFFFFFFFF69
:103C6000FFF8000007FFFFFFFFFFFFFFF00000036A
:103C7000FFFFFFFFFFFFFFE0000001FFFFFFFFFF6F
:103C8000FFFFC00000007FFFFFFFFFFFFF000000FD
:103C9000003FFFFFFFFFFFFE000000001FFFFFFFD0
:103CA000FFFFFC000000000FFFFFFFFFFFF8000018
:103CB000000003FFFFFFFFFFE00000000000FFFF28
:103CC000FFFFFF8000000000003FFFFFFFFE00003D
:103CD000000000000FFFFFFFF800000000000003DD
:103CE000FFFFFFE0000000000000007FFFFF00007A
:103CF00000000000000003FFE000000000000000E2
:103D00000000000000000000000000000FFFE000C5
:103D100000000000000000FFFFFF000000000000A6
:103D20000007FFFFFFE00000000000003FFFFFFF73
:103D3000D80000000000007FFFFFFFE60000000049
:103D40000001FFFFFFFFF9800000000007FFFFFFF9
:103D5000FFFE60000000000FFFFFFFFFFF180000E4
:103D600000001FFFFFFFFFFFC4000000007FFFFFF8
:103D7000FFFFFFE200000000FFFFFFFFFFFFF10079
:103D8000000001FFFFFFFFFFFFF8C0000003FFFF7F
:103D9000FFFFFFFFFC20000007FFFFFFFFFFFFFE0C
:103DA0001000000FFFFFFFFFFFFFFF0800000FFFE5
:103DB000FFFFFFFFFFFF0800001FFFFFFFFFFFFFE8
:103DC000FF8400003FFFFFFFFFFFFFFFC200007FF7
:103DD000FFFFFFFFFFFFFFE10000FFFFFFFFFFFF0F
:103DE000FFFFE08000FFFFFFFFFFFFFFFFF080010C
:103DF000FFFFFFFFFFFFFFFFF04001FFFFFFFFFF9F
:103E0000FFFFFFF84003FFFFFFFFFFFFFFFFF8206A
:103E100003FFFFFFFFFFFFFFFFFC2007FFFFFFFF88
:103E2000FFFFFFFFFC1007FFFFFFFFFFFFFFFFFE8D
:103E3000100FFFFFFFFFFFFFFFFFFE080FFFFFFF59
:103E4000FFFFFFFFFFFE081FFFFFFFFFFFFFFFFF5A
:103E5000FF041FFFFFFFFFFFFFFFFFFF041FFFFF28
:103E6000FFFFFFFFFFFFFF043FFFFFFFFFFFFFFF1D
:103E7000FFFF823FFFFFFFFFFFFFFFFFFF823FFFCC
:103E8000FFFFFFFFFFFFFFFF823FFFFFFFFFFFFF7F
:103E9000FFFFFF823FFFFFFFFFFFFFFFFFFF827F6C
:103EA000FFFFFFFFFFFFFFFFFFC17FFFFFFFFFFFE0
:103EB000FFFFFFFFC17FFFFFFFFFFFFFFFFFFFC10E
:103EC0007FFFFFFFFFFFFFFFFFFFC17FFFFFFFFF40
:103ED000FFFFFFFFFFC17FFFFFFFFFFFFFFFFFFFB0
:103EE000C17FFFFFFFFFFFFFFFFFFFC17FFFFFFF5E
:103EF000FFFFFFFFFFFFC17FFFFFFFFFFFFFFFFF90
:103F0000FFC17FFFFFFFFFFFFFFFFFFFC17FFFFF3D
:103F1000FFFFFFFFFFFFFFC17FFFFFFFFFFFFFFF6F
:103F2000FFFFC17FFFFFFFFFFFFFFFFFFF813FFF9D
:103F3000FFFFFFFFFFFFFFFF823FFFFFFFFFFFFFCE
:103F4000FFFFFF823FFFFFFFFFFFFFFFFFFF823FFB
:103F5000FFFFFFFFFFFFFFFFFF823FFFFFFFFFFFAE
:103F6000FFFFFFFF021FFFFFFFFFFFFFFFFFFF0439
:103F70001FFFFFFFFFFFFFFFFFFF041FFFFFFFFF0C
:103F8000FFFFFFFFFE040FFFFFFFFFFFFFFFFFFE2E
:103F9000080FFFFFFFFFFFFFFFFFFE0807FFFFFF08
:103FA000FFFFFFFFFFFC1007FFFFFFFFFFFFFFFF0B
:103FB000FC1003FFFFFFFFFFFFFFFFF82003FFFFE1
:103FC000FFFFFFFFFFFFF82001FFFFFFFFFFFFFFE5
:103FD000FFF04001FFFFFFFFFFFFFFFFF04000FF8A
:103FE000FFFFFFFFFFFFFFE08000FFFFFFFFFFFF7E
:103FF000FFFFE080007FFFFFFFFFFFFFFFC100002A
:104000003FFFFFFFFFFFFFFF8200001FFFFFFFFFDB
:10401000FFFFFF0400000FFFFFFFFFFFFFFF08008F
:10402000000FFFFFFFFFFFFFFE08000007FFFFFF7D
:10403000FFFFFFFC10000003FFFFFFFFFFFFF82062
:10404000000001FFFFFFFFFFFFF0C00000007FFF47
:10405000FFFFFFFFE1000000003FFFFFFFFFFFC287
:10406000000000001FFFFFFFFFFF04000000000F23
:10407000FFFFFFFFFE180000000003FFFFFFFFF837
:10408000600000000000FFFFFFFFE1800000000073
:10409000003FFFFFFFC60000000000000FFFFFFE13
:1040A0001800000000000003FFFFF0E00000000027
:1040B0000000007FFFFF000000000000000003FF81
:1040C000E000000000000000000000000000000010
:1040D0000000000003FFE000000000000000007F7F
:1040E000F81F0000000000000007FFFF80E0000054
:1040F000000000003FFFFFF018000000000000FF7C
:10410000FFFFFC06000000000003FFFFFFFF01802F
:104110000000000007FFFFFFFF8060000000001F9D
:10412000FFFFFFFFE018000000003FFFFFFFFFF070
:1041300004000000007FFFFFFFFFF8020000000006
:10414000FFFFFFFFFFFE0100000003FFFFFFFFFF77
:10415000FF00C0000007FFFFFFFFFFFF80200000FF
:104160000FFFFFFFFFFFFFC01000001FFFFFFFFF5B
:10417000FFFFE00800001FFFFFFFFFFFFFE0080058
:10418000003FFFFFFFFFFFFFF00400007FFFFFFF86
:10419000FFFFFFF80200007FFFFFFFFFFFFFFC01B2
:1041A0000000FFFFFFFFFFFFFFFC008001FFFFFF9C
:1041B000FFFFFFFFFE008001FFFFFFFFFFFFFFFE8D
:1041C000004003FFFFFFFFFFFFFFFF004003FFFF73
:1041D000FFFFFFFFFFFF002007FFFFFFFFFFFFFFC5
:1041E000FF802007FFFFFFFFFFFFFFFF80100FFF93
:1041F000FFFFFFFFFFFFFFC0100FFFFFFFFFFFFFED
:10420000FFFFC0080FFFFFFFFFFFFFFFFFC0081FFA
:10421000FFFFFFFFFFFFFFFFE0041FFFFFFFFFFFA8
:10422000FFFFFFE0041FFFFFFFFFFFFFFFFFE004B2
:104230003FFFFFFFFFFFFFFFFFF0023FFFFFFFFF1A
:10424000FFFFFFFFF0023FFFFFFFFFFFFFFFFFF059
:10425000023FFFFFFFFFFFFFFFFFF0023FFFFFFFF7
:10426000FFFFFFFFFFF0027FFFFFFFFFFFFFFFFFEA
:10427000F8017FFFFFFFFFFFFFFFFFF8017FFFFF58
:10428000FFFFFFFFFFFFF8017FFFFFFFFFFFFFFFC3
:10429000FFF8017FFFFFFFFFFFFFFFFFF8017FFF38
:1042A000FFFFFFFFFFFFFFF8017FFFFFFFFFFFFFA3
:1042B000FFFFF8017FFFFFFFFFFFFFFFFFF8017F18
:1042C000FFFFFFFFFFFFFFFFF8017FFFFFFFFFFF83
:1042D000FFFFFFF8017FFFFFFFFFFFFFFFFFF80178
:1042E0007FFFFFFFFFFFFFFFFFF8017FFFFFFFFFE3
:1042F000FFFFFFFFF8013FFFFFFFFFFFFFFFFFF0A2
:10430000023FFFFFFFFFFFFFFFFFF0023FFFFFFF46
:10431000FFFFFFFFFFF0023FFFFFFFFFFFFFFFFF79
:10432000F0023FFFFFFFFFFFFFFFFFF0021FFFFF55
:10433000FFFFFFFFFFFFE0041FFFFFFFFFFFFFFF87
:10434000FFE0041FFFFFFFFFFFFFFFFFE0040FFF81
:10435000FFFFFFFFFFFFFFC0080FFFFFFFFFFFFF93
:10436000FFFFC0080FFFFFFFFFFFFFFFFFC01007A9
:10437000FFFFFFFFFFFFFFFF801007FFFFFFFFFFB3
:10438000FFFFFF802003FFFFFFFFFFFFFFFF002075
:1043900003FFFFFFFFFFFFFFFF004001FFFFFFFFE5
:1043A000FFFFFFFE004001FFFFFFFFFFFFFFFE00DA
:1043B0008000FFFFFFFFFFFFFFFC0080007FFFFF8B
:1043C000FFFFFFFFFC0100007FFFFFFFFFFFFFF883
:1043D0000200003FFFFFFFFFFFFFF00400001FFF90
:1043E000FFFFFFFFFFE00800001FFFFFFFFFFFFFD1
:1043F000E00800000FFFFFFFFFFFFFC010000007F5
:10440000FFFFFFFFFFFF8020000003FFFFFFFFFF14
:10441000FF00C0000000FFFFFFFFFFFE01000000E3
:10442000007FFFFFFFFFF802000000003FFFFFFFDB
:10443000FFF004000000001FFFFFFFFFE018000076
:10444000000007FFFFFFFF80600000000003FFFF88
:10445000FFFF01800000000000FFFFFFFC060000DE
:10446000000000003FFFFFF0180000000000000700
:10447000FFFF80E0000000000000007FF81F000048
:1044800000000000000003FFE0000000000000004A
:1044900000000000000000000000000003FFE0003A
:1044A000000000000000007C001F00000000000071
:1044B0000003FF8000E00000000000001FFFFC0080
:1044C00018000000000000FFFFFF80060000000051
:1044D0000003FFFFFFE001800000000007FFFFFF77
:1044E000F00060000000001FFFFFFFFC001800004C
:1044F00000003FFFFFFFFE000400000000FFFFFF81
:10450000FFFF800200000001FFFFFFFFFFC001006E
:10451000000003FFFFFFFFFFE000C0000007FFFFF8
:10452000FFFFFFF0002000000FFFFFFFFFFFF8007C
:104530001000001FFFFFFFFFFFFC000800003FFF0F
:10454000FFFFFFFFFE000800003FFFFFFFFFFFFE31
:10455000000400007FFFFFFFFFFFFF00020000FFDD
:10456000FFFFFFFFFFFF80010000FFFFFFFFFFFFD6
:10457000FF80008001FFFFFFFFFFFFFFC0008003FF
:10458000FFFFFFFFFFFFFFE0004003FFFFFFFFFF14
:10459000FFFFE0004003FFFFFFFFFFFFFFE0002001
:1045A00007FFFFFFFFFFFFFFF0002007FFFFFFFFF8
:1045B000FFFFFFF000100FFFFFFFFFFFFFFFF800FE
:1045C000100FFFFFFFFFFFFFFFF800081FFFFFFFB7
:1045D000FFFFFFFFFC00081FFFFFFFFFFFFFFFFCC7
:1045E00000041FFFFFFFFFFFFFFFFC00041FFFFF92
:1045F000FFFFFFFFFFFC00043FFFFFFFFFFFFFFF88
:10460000FE00023FFFFFFFFFFFFFFFFE00023FFF34
:10461000FFFFFFFFFFFFFE00023FFFFFFFFFFFFF67
:10462000FFFE00023FFFFFFFFFFFFFFFFE00027FD4
:10463000FFFFFFFFFFFFFFFE00017FFFFFFFFFFF08
:10464000FFFFFF00017FFFFFFFFFFFFFFFFF0001F4
:104650007FFFFFFFFFFFFFFFFF00017FFFFFFFFF67
:10466000FFFFFFFF00017FFFFFFFFFFFFFFFFF00D6
:10467000017FFFFFFFFFFFFFFFFF00017FFFFFFF45
:10468000FFFFFFFFFF00017FFFFFFFFFFFFFFFFFB7
:1046900000017FFFFFFFFFFFFFFFFF00017FFFFF24
:1046A000FFFFFFFFFFFF00017FFFFFFFFFFFFFFF97
:1046B000FE00017FFFFFFFFFFFFFFFFE00013FFF46
:1046C000FFFFFFFFFFFFFE00023FFFFFFFFFFFFFB7
:1046D000FFFE00023FFFFFFFFFFFFFFFFE00023F64
:1046E000FFFFFFFFFFFFFFFE00023FFFFFFFFFFF97
:1046F000FFFFFC00021FFFFFFFFFFFFFFFFC0004A6
:104700001FFFFFFFFFFFFFFFFC00041FFFFFFFFF76
:10471000FFFFFFFC00040FFFFFFFFFFFFFFFF8009C
:10472000080FFFFFFFFFFFFFFFF8000807FFFFFF75
:10473000FFFFFFFFF0001007FFFFFFFFFFFFFFF08D
:10474000001007FFFFFFFFFFFFFFE0002003FFFF58
:10475000FFFFFFFFFFE0002003FFFFFFFFFFFFFF62
:10476000E0004001FFFFFFFFFFFFFFC0004000FF30
:10477000FFFFFFFFFFFF80008000FFFFFFFFFFFF45
:10478000FF800080007FFFFFFFFFFFFF00010000B0
:104790003FFFFFFFFFFFFE000200003FFFFFFFFFA4
:1047A000FFFE000400001FFFFFFFFFFFFC000800EA
:1047B000000FFFFFFFFFFFF80008000007FFFFFFEB
:1047C000FFFFF00010000003FFFFFFFFFFE00020ED
:1047D000000001FFFFFFFFFFC000C0000000FFFF5F
:1047E000FFFFFF8001000000003FFFFFFFFE00020F
:1047F000000000001FFFFFFFFC0004000000000F8E
:10480000FFFFFFF000180000000003FFFFFFE000C3
:10481000600000000000FFFFFF800180000000003A
:10482000003FFFFC00060000000000000FFFC0007A
:104830001800000000000003800000E000000000FD
:104840000000007C001F000000000000000003FFCB
:10485000E000000000000000000000000000000078
:104860000000000003FFE000000000000000007CEA
:10487000001F0000000000000003FF0000E0000037
:10488000000000001FFFE000180000000000007F93
:10489000FFFC0006000000000000FFFFFF00018099
:1048A0000000000003FFFFFF800060000000001F09
:1048B000FFFFFFE00018000000001FFFFFFFF000F7
:1048C00004000000003FFFFFFFF8000200000000AE
:1048D0007FFFFFFFFC000100000001FFFFFFFFFE64
:1048E0000000C0000007FFFFFFFFFF0000200000E6
:1048F00007FFFFFFFFFF80001000000FFFFFFFFF1B
:10490000FFC0000800000FFFFFFFFFFFE0000800EE
:10491000001FFFFFFFFFFFF0000400003FFFFFFF4D
:10492000FFFFF0000200007FFFFFFFFFFFF8000124
:104930000000FFFFFFFFFFFFFC00008000FFFFFF04
:10494000FFFFFFFC00008001FFFFFFFFFFFFFE00F5
:10495000004001FFFFFFFFFFFFFE00004003FFFFDD
:10496000FFFFFFFFFF00002003FFFFFFFFFFFFFF30
:1049700000002007FFFFFFFFFFFFFF00001007FF01
:10498000FFFFFFFFFFFF8000100FFFFFFFFFFFFF94
:10499000FF8000081FFFFFFFFFFFFFFFC000081F91
:1049A000FFFFFFFFFFFFFFC000041FFFFFFFFFFF30
:1049B000FFFFC000041FFFFFFFFFFFFFFFC0000459
:1049C0003FFFFFFFFFFFFFFFE000023FFFFFFFFF92
:1049D000FFFFFFE000023FFFFFFFFFFFFFFFE000E0
:1049E000023FFFFFFFFFFFFFFFE000023FFFFFFF6F
:1049F000FFFFFFFFE000027FFFFFFFFFFFFFFFE081
:104A000000017FFFFFFFFFFFFFFFF000017FFFFFBF
:104A1000FFFFFFFFFFF000017FFFFFFFFFFFFFFF32
:104A2000F000017FFFFFFFFFFFFFFFF000017FFFAE
:104A3000FFFFFFFFFFFFF000017FFFFFFFFFFFFF12
:104A4000FFF000017FFFFFFFFFFFFFFFF000017F8E
:104A5000FFFFFFFFFFFFFFF000017FFFFFFFFFFFF2
:104A6000FFFFF000017FFFFFFFFFFFFFFFF00001EE
:104A70007FFFFFFFFFFFFFFFF000017FFFFFFFFF52
:104A8000FFFFFFF000013FFFFFFFFFFFFFFFE00020
:104A9000023FFFFFFFFFFFFFFFE000023FFFFFFFBE
:104AA000FFFFFFFFE000023FFFFFFFFFFFFFFFE010
:104AB00000023FFFFFFFFFFFFFFFE000021FFFFFBD
:104AC000FFFFFFFFFFC000041FFFFFFFFFFFFFFF0F
:104AD000C000041FFFFFFFFFFFFFFFC000041FFF18
:104AE000FFFFFFFFFFFFC000080FFFFFFFFFFFFFFB
:104AF000FF80000807FFFFFFFFFFFFFF8000100798
:104B0000FFFFFFFFFFFFFF80001003FFFFFFFFFF1E
:104B1000FFFF00002003FFFFFFFFFFFFFF0000205B
:104B200001FFFFFFFFFFFFFE00004001FFFFFFFF4F
:104B3000FFFFFE00004000FFFFFFFFFFFFFC000043
:104B40008000FFFFFFFFFFFFFC000080007FFFFFF2
:104B5000FFFFFFF8000100003FFFFFFFFFFFF00035
:104B60000200001FFFFFFFFFFFF0000400000FFF27
:104B7000FFFFFFFFE0000800000FFFFFFFFFFFC087
:104B80000008000007FFFFFFFFFF80001000000388
:104B9000FFFFFFFFFF000020000001FFFFFFFFFEFF
:104BA0000000C00000007FFFFFFFFC0001000000CC
:104BB000003FFFFFFFF80002000000001FFFFFFFA3
:104BC000F00004000000000FFFFFFFE000180000ED
:104BD000000003FFFFFF8000600000000000FFFFF7
:104BE000FF00018000000000007FFFFC00060000C5
:104BF000000000001FFFE00018000000000000039C
:104C0000FF0000E0000000000000007C001F00002A
:104C100000000000000003FFE000000000000000B2
:104C200000000000000000000000000003FFE000A2
:104C300000000000000003FC001F00000000000056
:104C40000003FE0000E00000000000000FFF8000F5
:104C5000180000000000003FFFE000060000000018
:104C60000000FFFFF00001800000000003FFFFFCD8
:104C7000000060000000000FFFFFFE0000180000B1
:104C800000001FFFFFFF000004000000003FFFFFC7
:104C9000FF800002000000007FFFFFFFC000010056
:104CA000000001FFFFFFFFE00000C0000003FFFF66
:104CB000FFFFE0000020000007FFFFFFFFF0000003
:104CC0001000000FFFFFFFFFF800000800000FFFBB
:104CD000FFFFFFFC00000800001FFFFFFFFFFC00BC
:104CE000000400003FFFFFFFFFFE00000200007F06
:104CF000FFFFFFFFFE0000010000FFFFFFFFFFFFBF
:104D00000000008000FFFFFFFFFFFF0000008001A8
:104D1000FFFFFFFFFFFF8000004001FFFFFFFFFFDD
:104D2000FF8000004003FFFFFFFFFFFF8000002027
:104D300007FFFFFFFFFFFFC000002007FFFFFFFF8F
:104D4000FFFFC00000100FFFFFFFFFFFFFE00000AC
:104D5000100FFFFFFFFFFFFFE00000080FFFFFFF46
:104D6000FFFFFFE00000081FFFFFFFFFFFFFE00065
:104D700000041FFFFFFFFFFFFFF00000041FFFFF05
:104D8000FFFFFFFFF00000043FFFFFFFFFFFFFF00A
:104D90000000023FFFFFFFFFFFFFF00000023FFFA8
:104DA000FFFFFFFFFFF00000023FFFFFFFFFFFFFDD
:104DB000F00000023FFFFFFFFFFFFFF80000023F8F
:104DC000FFFFFFFFFFFFF80000013FFFFFFFFFFFB6
:104DD000FFF80000013FFFFFFFFFFFFFF8000001A9
:104DE0003FFFFFFFFFFFFFF80000013FFFFFFFFF56
:104DF000FFFFF80000013FFFFFFFFFFFFFF800008B
:104E0000013FFFFFFFFFFFFFF80000013FFFFFFF33
:104E1000FFFFFFF80000013FFFFFFFFFFFFFF8006B
:104E200000013FFFFFFFFFFFFFF80000013FFFFF12
:104E3000FFFFFFFFF80000013FFFFFFFFFFFFFF84C
:104E40000000013FFFFFFFFFFFFFF80000013FFFF1
:104E5000FFFFFFFFFFF00000021FFFFFFFFFFFFF4C
:104E6000F00000021FFFFFFFFFFFFFF00000021F26
:104E7000FFFFFFFFFFFFF00000021FFFFFFFFFFF2C
:104E8000FFF00000021FFFFFFFFFFFFFF000000424
:104E90000FFFFFFFFFFFFFE00000040FFFFFFFFF1A
:104EA000FFFFE00000040FFFFFFFFFFFFFE0000037
:104EB000080FFFFFFFFFFFFFE000000807FFFFFFF5
:104EC000FFFFFFC000001007FFFFFFFFFFFFC00054
:104ED000001007FFFFFFFFFFFF8000002003FFFF20
:104EE000FFFFFFFF8000002003FFFFFFFFFFFF80A9
:104EF00000004001FFFFFFFFFFFF0000004001FF37
:104F0000FFFFFFFFFF0000008000FFFFFFFFFFFE2D
:104F10000000008000FFFFFFFFFFFE000001000017
:104F20007FFFFFFFFFFC00000200001FFFFFFFFFED
:104F3000FC00000400000FFFFFFFFFF80000080066
:104F4000000FFFFFFFFFF0000008000007FFFFFF5A
:104F5000FFF0000010000003FFFFFFFFE000002053
:104F6000000001FFFFFFFFC00000C00000007FFF46
:104F7000FFFF800001000000003FFFFFFF00000274
:104F8000000000001FFFFFFE000004000000000FF3
:104F9000FFFFFC0000180000000003FFFFF000000E
:104FA000600000000000FFFFE00001800000000042
:104FB000003FFF8000060000000000000FFE000020
:104FC000180000000000000FF00000E000000000EA
:104FD0000000007C001F000000000000000003FF34
:104FE000E0000000000000000000000000000000E1
:104FF0000000000003FFE000000000000000007C53
:10500000001F000000000000000F800000E0000012
:10501000000000000FF00000180000000000003F3A
:10502000FC000006000000000000FFFF00000180FF
:105030000000000003FFFF80000060000000000F80
:10504000FFFFC0000018000000001FFFFFE000008D
:1050500004000000003FFFFFF0000002000000001D
:105060007FFFFFF800000100000001FFFFFFFC00D0
:105070000000C0000003FFFFFFFE00000020000052
:1050800007FFFFFFFE0000001000000FFFFFFFFF03
:105090000000000800000FFFFFFFFF800000080075
:1050A000001FFFFFFFFF8000000400003FFFFFFF25
:1050B000FFC000000200007FFFFFFFFFC0000001F3
:1050C0000000FFFFFFFFFFE00000008000FFFFFF88
:1050D000FFFFE00000008001FFFFFFFFFFF0000086
:1050E000004003FFFFFFFFFFF00000004003FFFF51
:1050F000FFFFFFF80000002007FFFFFFFFFFF800A1
:1051000000002007FFFFFFFFFFF8000000100FFF67
:10511000FFFFFFFFFC000000100FFFFFFFFFFFFC81
:10512000000000080FFFFFFFFFFFFC000000081F4A
:10513000FFFFFFFFFFFC000000041FFFFFFFFFFF5A
:10514000FE000000041FFFFFFFFFFFFE0000000441
:105150001FFFFFFFFFFFFE000000021FFFFFFFFF1A
:10516000FFFE000000023FFFFFFFFFFFFE00000008
:10517000023FFFFFFFFFFFFE000000023FFFFFFFB7
:10518000FFFFFF000000023FFFFFFFFFFFFF0000E7
:1051900000013FFFFFFFFFFFFF000000013FFFFF97
:1051A000FFFFFFFF000000013FFFFFFFFFFFFF00C9
:1051B0000000013FFFFFFFFFFFFF000000013FFF76
:1051C000FFFFFFFFFF000000013FFFFFFFFFFFFFAA
:1051D000000000013FFFFFFFFFFFFF000000013F55
:1051E000FFFFFFFFFFFF000000013FFFFFFFFFFF8A
:1051F000FF000000013FFFFFFFFFFFFF0000000175
:105200003FFFFFFFFFFFFF000000013FFFFFFFFF29
:10521000FFFF000000013FFFFFFFFFFFFE00000057
:10522000021FFFFFFFFFFFFE000000021FFFFFFF46
:10523000FFFFFE000000021FFFFFFFFFFFFE000058
:1052400000021FFFFFFFFFFFFE000000021FFFFF25
:10525000FFFFFFFE000000041FFFFFFFFFFFFC0039
:105260000000040FFFFFFFFFFFFC000000040FFF22
:10527000FFFFFFFFFC000000080FFFFFFFFFFFFC28
:105280000000000807FFFFFFFFFFF8000000100705
:10529000FFFFFFFFFFF80000001007FFFFFFFFFF09
:1052A000F80000002003FFFFFFFFFFF000000020D8
:1052B00003FFFFFFFFFFF00000004001FFFFFFFFC3
:1052C000FFF00000004001FFFFFFFFFFE0000000D3
:1052D0008000FFFFFFFFFFC000000080007FFFFF96
:1052E000FFFFC000000100007FFFFFFFFF80000004
:1052F0000200001FFFFFFFFF8000000400000FFFFF
:10530000FFFFFF0000000800000FFFFFFFFF00008D
:105310000008000007FFFFFFFE0000001000000370
:10532000FFFFFFFC00000020000001FFFFFFF8006E
:105330000000C00000007FFFFFF00000010000003F
:10534000003FFFFFE0000002000000001FFFFFC061
:10535000000004000000000FFFFF800000180000A4
:10536000000003FFFF000000600000000000FFFCE1
:105370000000018000000000003FF0000006000077
:10538000000000001F800000180000000000000066
:10539000800000E0000000000000007C001F000012
:1053A00000000000000003FFE0000000000000001B
:1053B00000000000000000000000000003FFE0000B
:1053C000000000000000007FFC1F00000000000043
:1053D0000003FFFC00E00000000000000FFFFC00E5
:1053E000180000000000003FFFFC00060000000065
:1053F0000000FFFFFC0001800000000003FFFFFC35
:10540000000060000000000FFFFFFC00001800001B
:1054100000001FFFFFFC000004000000003FFFFF32
:10542000FC000002000000007FFFFFFC0000010004
:10543000000001FFFFFFFC000000C0000003FFFFB1
:10544000FFFC00000020000007FFFFFFFC00000041
:105450001000000FFFFFFFFC0000000800000FFF1E
:10546000FFFFFC0000000800001FFFFFFFFC000022
:10547000000400003FFFFFFFFC0000000200007F6F
:10548000FFFFFFFC000000010000FFFFFFFFFC002A
:105490000000008000FFFFFFFFFC00000000800113
:1054A000FFFFFFFFFC000000004001FFFFFFFFFCCB
:1054B000000000004003FFFFFFFFFC000000002091
:1054C00003FFFFFFFFFC000000002007FFFFFFFFBE
:1054D000FC000000001007FFFFFFFFFC00000000C1
:1054E000100FFFFFFFFFFC00000000080FFFFFFF91
:1054F000FFFC00000000081FFFFFFFFFFC00000092
:1055000000041FFFFFFFFFFC00000000041FFFFF5F
:10551000FFFFFC00000000043FFFFFFFFFFC000056
:105520000000023FFFFFFFFFFC00000000023FFF02
:10553000FFFFFFFC00000000023FFFFFFFFFFC0039
:10554000000000023FFFFFFFFFFC00000000027FA1
:10555000FFFFFFFFFC00000000017FFFFFFFFFFCDB
:1055600000000000017FFFFFFFFFFC0000000001C2
:105570007FFFFFFFFFFC00000000017FFFFFFFFF38
:10558000FC00000000017FFFFFFFFFFC00000000A7
:10559000017FFFFFFFFFFC00000000017FFFFFFF16
:1055A000FFFC00000000017FFFFFFFFFFC00000088
:1055B00000017FFFFFFFFFFC00000000017FFFFFF5
:1055C000FFFFFC00000000017FFFFFFFFFFC000069
:1055D0000000017FFFFFFFFFFC00000000013FFF14
:1055E000FFFFFFFC00000000023FFFFFFFFFFC0089
:1055F000000000023FFFFFFFFFFC00000000023F31
:10560000FFFFFFFFFC00000000023FFFFFFFFFFC69
:1056100000000000021FFFFFFFFFFC00000000046D
:105620001FFFFFFFFFFC00000000041FFFFFFFFF44
:10563000FC00000000040FFFFFFFFFFC0000000063
:10564000080FFFFFFFFFFC000000000807FFFFFF3F
:10565000FFFC000000001007FFFFFFFFFC00000040
:10566000001003FFFFFFFFFC000000002003FFFF0E
:10567000FFFFFC000000002001FFFFFFFFFC000017
:1056800000004001FFFFFFFFFC000000004000FFA2
:10569000FFFFFFFC000000008000FFFFFFFFFC0099
:1056A00000000080007FFFFFFFFC00000001000001
:1056B0003FFFFFFFFC0000000200001FFFFFFFFC98
:1056C0000000000400000FFFFFFFFC0000000800C6
:1056D000000FFFFFFFFC00000008000007FFFFFFB6
:1056E000FC00000010000003FFFFFFFC0000002092
:1056F000000001FFFFFFFC000000C00000007FFF72
:10570000FFFC000001000000003FFFFFFC00000262
:10571000000000001FFFFFFC000004000000000F5D
:10572000FFFFFC0000180000000003FFFFFC00006A
:10573000600000000000FFFFFC000180000000008E
:10574000003FFFFC00060000000000000FFFFC000F
:105750001800000000000003FFFC00E00000000053
:105760000000007FFC1F000000000000000003FF9D
:10577000E000000000000000000000000000000049
:105780000000000007FFC00000000000000000FF54
:10579000FFFE0000000000000007FFFFFFF0000018
:1057A000000000001FFFFFFE300000000000007F2F
:1057B000FFFFF00C000000000001FFFFFFC003002E
:1057C0000000000007FFFFFF0000C0000000001FF6
:1057D000FFFFFE000030000000003FFFFFFC000064
:1057E00008000000007FFFFFF80000040000000038
:1057F000FFFFFFF000000200000003FFFFFFE000DA
:10580000000180000007FFFFFFC000000040000013
:105810000FFFFFFFC00000002000001FFFFFFF8000
:105820000000001000001FFFFFFF0000000010003C
:10583000003FFFFFFF000000000800007FFFFFFEA9
:1058400000000000040000FFFFFFFE000000000257
:105850000001FFFFFFFC00000000010001FFFFFF4F
:10586000FC00000000010003FFFFFFF80000000043
:10587000008003FFFFFFF80000000000C007FFFFEB
:10588000FFF000000000004007FFFFFFF0000000F5
:105890000000600FFFFFFFF00000000000200FFF7E
:1058A000FFFFE00000000000301FFFFFFFE00000EE
:1058B000000000101FFFFFFFE00000000000103F8D
:1058C000FFFFFFE00000000000183FFFFFFFC000E7
:1058D00000000000083FFFFFFFC0000000000008BC
:1058E0007FFFFFFFC00000000000087FFFFFFFC038
:1058F0000000000000087FFFFFFFC0000000000064
:105900000C7FFFFFFFC00000000000047FFFFFFFCF
:1059100080000000000004FFFFFFFF800000000087
:105920000004FFFFFFFF80000000000004FFFFFFF6
:10593000FF80000000000004FFFFFFFF8000000068
:10594000000004FFFFFFFF80000000000004FFFFD5
:10595000FFFF80000000000004FFFFFFFF80000049
:1059600000000004FFFFFFFF80000000000004FFB4
:10597000FFFFFF80000000000004FFFFFFFF80002A
:105980000000000004FFFFFFFF8000000000000493
:10599000FFFFFFFF80000000000004FFFFFFFF800B
:1059A0000000000000047FFFFFFFC00000000000B7
:1059B000047FFFFFFFC00000000000087FFFFFFF23
:1059C000C00000000000087FFFFFFFC000000000D3
:1059D00000087FFFFFFFC00000000000083FFFFF3E
:1059E000FFC00000000000083FFFFFFFE0000000D4
:1059F0000000183FFFFFFFE00000000000101FFF45
:105A0000FFFFE00000000000101FFFFFFFE00000AC
:105A1000000000100FFFFFFFF00000000000200F4B
:105A2000FFFFFFF000000000002007FFFFFFF00075
:105A3000000000006007FFFFFFF8000000000040CA
:105A400003FFFFFFF80000000000C003FFFFFFF8A6
:105A500000000000008001FFFFFFFC0000000001CB
:105A60008001FFFFFFFE00000000010000FFFFFFBC
:105A7000FE000000000200007FFFFFFF00000000AA
:105A80000600003FFFFFFF000000000800001FFFAE
:105A9000FFFF800000001000001FFFFFFF800000DC
:105AA000001000000FFFFFFFC000000020000007F3
:105AB000FFFFFFE000000040000003FFFFFFF000D9
:105AC000000180000000FFFFFFF80000020000005E
:105AD000007FFFFFFC000004000000003FFFFFFE0E
